:020000040000FA
:1000000008080500D5960200B9950200BD950200CA
:10001000ED960200F1960200F59602000000000045
:10002000000000000000000000000000F99602003F
:10003000FD96020000000000058E0000632902000A
:10004000000000000197020071950200000000000E
:1000500000000000000000000000000000000000A0
:100060000000000053FF000000000000000000003E
:10007000190101006990020069900200000000006F
:100080000000000000000000000000000000000070
:100090000000000000000000000000000000000060
:1000A00005970200000000000000000000000000B2
:1000B00047280100B7E70000B7E70000B7E70000F6
:1000C000B7E70000B7E70000B7E70000B7E70000B8
:1000D000B7E7000000000000B7E70000B7E7000046
:1000E000B7E70000B7E70000B7E70000B7E7000098
:1000F000B7E70000B7E70000B7E70000B7E7000088
:10010000F8B500224FF41261DFF8600B02F0E0F95D
:10011000DFF85C4B0022102104F1200002F0D8F936
:10012000DFF8505B0022182105F10C0002F0D0F935
:100130000022082104F1300002F0CAF9002208214F
:1001400004F1380002F0C4F9002020646064A06467
:10015000E0646862A862E862DFF81C6B7063B063F9
:10016000F0632863306470646863A863E863012007
:1001700028640020B064F0644FF0FF306864A86425
:100180000020E864306520657065F0653066706653
:10019000B066B06202462821304602F099F900208C
:1001A00070600220308100203060DFF8D07A024693
:1001B0000C21384602F08CF9DFF8C40A7860DFF8C9
:1001C000C40A3860012038720020287028656880D1
:1001D000A880E8806065F066A060A065F062686550
:1001E000A8656066A066E066706730676866286626
:1001F000E86501202867E866A8660020E867A86728
:100200006867062030860020F067B0672067DFF857
:10021000DC0DE065002020660120A0819620688129
:10022000062070860C20E0810020B0650246402147
:1002300007F10C0002F04CF900220621204602F0E2
:1002400047F90022102104F1100002F041F90020CA
:10025000E0616067F1BD10B584B0DFF8204A0C2280
:10026000214600A802F072F9FFF74AFF0C2200A90C
:10027000204602F06BF91FBD2DE9F0472DED0C8BE8
:1002800090B00024254600A821460A460B460EC021
:10029000302102F093F99FEDA98ADFF8D46996ED39
:1002A0001B0AD6ED140AC6ED1B0ADFF8CC7997EDD0
:1002B000149A86ED149ADFF8BC8998ED131AB8EEFB
:1002C000411ADFED9F1AC1EE819AC7ED149AD8F852
:1002D0004420D8F83490A9EB0200FA30FA21B0FBA0
:1002E000F1F1FA2303FB110080B2002800F0228410
:1002F0004C2803DAD8F84010012906D12046F862CC
:100300000220A8F8080000F015BCD7F84CA0BAF1FC
:10031000040F24D3F4EE490AF1EE10FA1FD5B4EE1F
:10032000699AF1EE10FA1AD59FED861A20EE811A1D
:10033000B4EE691AF1EE10FA11D59FED831AF4EEBE
:10034000419AF1EE10FA0ADB87ED149AC6ED140A11
:1003500086ED1B0A0320A8F8080000F025BC97EDE5
:100360000DAA87ED0EAAD7ED10AAC7ED11AA014676
:1003700000EE101AB8EE400AD8ED0B8AC8EE800ADB
:1003800098ED0C1A81EE001A21467963396420E059
:10039000521C92B2FA2A00D12246DFF8D03803EB81
:1003A0008203D3ED231A71EEE01AD3F8743402EE0F
:1003B000103A32EE412AD7ED0D2A41EEA12AC7EDBF
:1003C0000D2AD7ED101A42EE021AC7ED101A491C79
:1003D00089B28142DCDBD7ED0D0A80EE80BA87ED71
:1003E0000DBAD7ED100A80EE80CA87ED10CAD6ED9F
:1003F0001ABA98ED160AD8ED150A70EEC0CAF5EED5
:1004000040CAF1EE10FA02DDC6ED1ACA03E030EE82
:10041000600A86ED1A0A00F0ADFF012802D12046DD
:10042000F86287E3BAF1000F0BD1B88D052802DB23
:1004300005462046B885F88D052802DB451920467B
:10044000F8851AFA85F0002827D1B6EE00DA3CEEDE
:100450002A0A20EE0D0ADFEDA10AB4EE600AF1EEE1
:1004600010FA11D43BEE0A0A20EE0D0ADFED9C0AC9
:10047000B4EE600AF1EE10FA06D4B3EE040AF4EE1C
:1004800040CAF1EE10FA08D5B88D401CB885C8F8FE
:1004900048900620A8F808004CE3B88D002802D048
:1004A00045192046B8851AFA85F000281BD1B7EE09
:1004B000000AF4EE409AF1EE10FA03D50720A8F8EE
:1004C000080037E39FED870AF4EE409AF1EE10FA48
:1004D00006DBF88D401CF8850820A8F8080029E301
:1004E0002046F88503E0F88D45192046F885284612
:1004F00080B200F0E3FF012808D187ED149AC7ED20
:1005000010AAC6ED1ABA87ED0DAA13E39FED760A7D
:10051000F4EE409AF1EE10FA02DBDFF8380C3865A1
:100520002046B885BAF1000F10D1386D786587ED97
:100530000FBAB06E706600F0B5FE40E0000000003B
:1005400000007A446666E63F01004040B6EE00DAFD
:1005500000F0A8FE012816D197ED140AF0EE000A6B
:1005600020EE200A87ED140A6BEE0D0AC7ED0D0A86
:100570002CEE0D1A87ED101AC7ED0E0A87ED111A31
:1005800086ED140A6D1C97ED140AD6ED140A30EEB0
:10059000200A20EE0D0A87ED150A97ED0D0AD7ED1A
:1005A0000E0A30EE200A20EE0D0A87ED0F0A96EDB6
:1005B0001A0A3BEE800A20EE0D0A86ED190A98F819
:1005C0000100012840F0AB82D8F80C00009000A890
:1005D000D8F810104160D8F814108160214617E057
:1005E00000AB03EB820393ED010A50F822C000EE4A
:1005F00090CAB4EE600AF1EE10FA05D500EB820C59
:100600008CED000AC3ED010A521C022AE8DB491CEA
:10061000022901DA2246F8E79DED000AB5EE400A0C
:10062000F1EE10FA2AD5B5EE400AF1EE10FA01DC2F
:10063000B1EE400AD0ED020A30EE800A80ED020AE7
:100640009DED000AB5EE400AF1EE10FA01DCB1EEC4
:10065000400AD0ED010A30EE800A80ED010A9DEDDE
:10066000000AB5EE400AF1EE10FA01DCB1EE400AE4
:10067000DDED000A30EE800A8DED000A90ED010AF2
:10068000D0ED020A30EEC01ADDED000A30EE600A4D
:10069000B4EE401AF1EE10FA05D5F0EE410AB0EED4
:1006A000401AB0EE600AD6ED0C0AC6ED0D0A31EE26
:1006B000400A80EE010A9FED0D1A20EE010A86ED38
:1006C0000C0AB06BF063F4EE400AF1EE10FA0FD5AD
:1006D00070EE600AC6ED0E0A0EE000BF0000164381
:1006E0000000A042666616400100A0400000C8421B
:1006F00070EEC00AC6ED0E0A386F796F081800EB6D
:10070000D070401002EE100A86ED102AC6ED118A54
:10071000D7ED100AC6ED120AD7ED141ADFF8500C07
:10072000C0EDC41A96ED131A31EE611AD6ED132AF4
:1007300072EEE12A21EE221A00F5447181ED011AD0
:10074000C6ED131AD7ED1B1AC1ED021AD8F818100E
:10075000039103A9C1ED011AC1ED020AC1ED038A9B
:10076000C1ED041AC1ED058AC1ED061AB8EEC22A20
:1007700081ED072AC1ED081A81ED090AC1ED0A1AB7
:1007800081ED0B1ADDED032A9FEDD03A62EE832A4C
:100790009FEDCF3A41EE832A9FEDCE3A20EE833A89
:1007A000DFEDCD3A08EEA33ADFEDCC3A61EEA33AA5
:1007B0009FEDCB4A48EE843A9FEDCA4A21EE844A27
:1007C000DFEDC94A02EE244ADFEDC84A61EEA44AD1
:1007D0009FEDC75A40EE054A9FEDC65A21EE855A55
:1007E000DFEDC55A01EE255AF8EE085AF4EE652AF7
:1007F000F1EE10FA00F19381DFEDC05AB4EE653AE4
:10080000F1EE10FA00F18B81DFEDBD5AF4EE653A9E
:10081000F1EE10FA00F18381DFEDBA5AB4EE654AC9
:10082000F1EE10FA00F17B819FEDB76AF4EE464AD3
:10083000F1EE10FA00F173819FEDDE6AB4EE465AD4
:10084000F1EE10FA00F16B81DFEDDB6AF4EE662A5F
:10085000F1EE10FAC0F26381DFEDD82AB4EE623A0D
:10086000F1EE10FAC0F25B81F4EE653AF1EE10FAA7
:10087000C0F25581B4EE464AF1EE10FAC0F24F8153
:10088000F4EE654AF1EE10FAC0F24981DFEDCC2AB0
:10089000B4EE625AF1EE10FAC0F24181DFEDC92ADE
:1008A0009DED033AB4EE623AF1EE10FA01D5CDEDCA
:1008B000032ADDED032A9FEDC43AF4EE432AF1EE5C
:1008C00010FA02DBDFF8E82B0392DFEDD52AF4EE15
:1008D000621AF1EE10FA01D5C1ED012A9FEDD13A6D
:1008E000DFEDBA3A91ED014AB4EE634AF1EE10FA47
:1008F00001DB81ED013A9FEDB64AF4EE440AF1EED8
:1009000010FA01D581ED024AD1ED020A9FEDB14AFC
:10091000F4EE440AF1EE10FA02DBDFF8982B8A605D
:10092000DFEDC10AF4EE608AF1EE10FA01D5C1EDF7
:10093000030A9FEDBE4AD1ED034AF4EE444AF1EEBC
:1009400010FA02DBDFF8702BCA60F4EE621AF1EEE7
:1009500010FA01D5C1ED042AD1ED044AF4EE634A40
:10096000F1EE10FA01DB81ED043AF4EE608AF1EE6B
:1009700010FA01D5C1ED050AD1ED050AF4EE440ADD
:10098000F1EE10FA02DBDFF8302B4A61F4EE621A66
:10099000F1EE10FA01D5C1ED062AD1ED060AF4EE0A
:1009A000630AF1EE10FA01DB81ED063AF1EE000A7E
:1009B000B4EE602AF1EE10FA02D54FF08142CA611E
:1009C000D1ED070A9FEDA32AF4EE420AF1EE10FAE8
:1009D00002DBDFF84C2CCA61F4EE621AF1EE10FA79
:1009E00001D5C1ED082AD1ED080AF4EE630AF1EE53
:1009F00010FA01DB81ED083ADFED970AB4EE600AE8
:100A0000F1EE10FA01D5C1ED090A91ED090ADFED09
:100A1000930AB4EE600AF1EE10FA02DBDFF8442C20
:100A20004A62F4EE621AF1EE10FA01D5C1ED0A2A1B
:100A300091ED0A0AB4EE630AF1EE10FA01DB81EDE2
:100A40000A3AB5EE401AF1EE10FA01D52246CA6212
:100A500091ED0B0ADFED820AB4EE600AF1EE10FAB6
:100A600002DBDFF8042CCA62214612E01B1FD3ED23
:100A7000000A92ED031AF4EE410AF1EE10FA01D5E4
:100A80009FED780AB8EEC00AD2ED020A00EE208A85
:100A9000491C31293ADA9FED740A0B011A18D2F871
:100AA00004C0BCF1010F0DF10C0C1B580CEB8303BF
:100AB000DCD11B1FD3ED000A92ED031AF4EE410ABC
:100AC000F1EE10FADEDB9FED670ADBE7168733BD38
:100AD000B0568DBD03275BB9E23C9CB9983115BE79
:100AE000BF49D3B97061FDBD55C128BC36CB05BE29
:100AF0003D7FDABBDDED0ABEE4BE353E6666A6BFCD
:100B00003333F3BFCDCC4CBFCDCC8CBFB5EE408AD8
:100B1000F1EE10FA03DD0F20A8F808000AE097EDC7
:100B2000150A284680B200F0AFF800F055F80446E8
:100B3000C8F84890C8F844900020C8F84C00C8F89D
:100B40002C00C8F83000C8F840000246102106F119
:100B5000200001F0BDFC00220C2108F10C0001F086
:100B600031FDDFF88804F06500203066F888002841
:100B70001AD1F86F00280CD0B86CF968401A398E79
:100B8000B0EB510F02DB002038810DE001203881ED
:100B90000AE0B88DF98D11FA80F0032802DB0120FC
:100BA000388101E002203881204610B0BDEC0C8B6A
:100BB000BDE8F087333333BFCDCC0CC09A9919BF51
:100BC000CDCC4CBE5017C93FC9AC454216E6684073
:100BD0007D90A341A2F2924438B50025DFF81C4C69
:100BE0000120E06700F01EFD2060E06C218E88424D
:100BF00014D3A06CE060208DA080608DE080A06D9B
:100C00006061E06DA061206EE061606E2062A06EA8
:100C100060620120A0672846E0670125284632BDB2
:100C2000A9F56E3E15E66840BA9F17443564EC445A
:100C30001148C16881640021C164416002210181C1
:100C400000218162C1690166416A81660021C16734
:100C500070470000010058427B4D4F3D47FFC7429F
:100C6000BEBA984101000000FFFFFFFF405B050096
:100C700060500500604F0500E04F0500B0C0050062
:100C800000002F43000070422DE9F84F2DED048B3A
:100C900082B08346002213461046DFF8604BE56CB5
:100CA00005F10F0101F00F01EE1D06F00706009699
:100CB000DFF8506B06EB810787ED030ABBF1000FED
:100CC00018D0074614E0A1F1010CACEB070C0CF1B5
:100CD000100C4FEAEC0E0CEB1E7E4FEA2E1EBCEB06
:100CE0000E1C03D406EB8C0C8CED030A7F1C3FB268
:100CF0005F45E8DB102D02D2294609B200E00F2142
:100D00009FEDBB8ADFEDBA0A9FEDBA1A07461BE0DA
:100D100006EB810CDCED031AF5EE401AF1EE10FA49
:100D200010DD38EE218AF4EE610AF1EE10FA01D5F9
:100D3000F0EE610AF4EE411AF1EE10FA01D5B0EED0
:100D4000611A7F1C491E09B20029E1D53FB239461C
:100D500003290BDB78EE600A70EEC10A891E01EEF2
:100D6000101AB8EEC11A80EE818A07E0012905DB6E
:100D700000EE907AF8EEE00A88EE208AB5EE408A1E
:100D8000F1EE10FA01D0002F01D1B0EE408A84EDCF
:100D9000168A9FED990AB4EE408AF1EE10FA02D558
:100DA000B0EE408A08E09FED950AB4EE408AF1EE7D
:100DB00010FA01DBB1EE028AB0EE040AB4EE408A0A
:100DC000F1EE10FA08D494ED1B0AF0EE080AB4EE26
:100DD000600AF1EE10FA02D50321218501E0042119
:100DE0002185A76C07F00709DFF8208A09EB080EB8
:100DF000218D8EF8B818BBF1000F0BD0A7F1010CB4
:100E00000CF0070CC44407F0070AC2449AF8B8A8CB
:100E10008CF8B8A84FF0080C10E0BAF1040F00D11C
:100E2000401CA9F101090FFA89F9B9F1000F01D5A8
:100E300009F10809ACF1010C0FFA8CFCBCF1010FAF
:100E400016DB0FFA89F909EB080A9AF9B8A8BAF182
:100E5000030F01D15B1C03E0BAF1040F00D1521C57
:100E6000BCF1060FDDDBBAF1030FD6D1401ED8E787
:100E7000B4F82AC092B29BB29A4207D3934202D2EC
:100E8000042060850DE000B2002802D503206085B3
:100E900007E0012802DB0420608502E09EF9B80823
:100EA0006085B4F82A90B9F1040F01D1104600E032
:100EB0001846CC4509D000202081E088002820D1A8
:100EC000042D1ED3012020811BE012FA83F2012A97
:100ED00015DB052A10DB00EE102AB8EEC00AF6EE8C
:100EE000080A20EE200A00EE900AF8EE600AF4EEFE
:100EF000400AF1EE10FA02D50120208101E0022023
:100F0000208149B2B0EE480A304600F025F9DFED05
:100F1000900AB4EE600AF1EE10FA01D5B0EE600A64
:100F200084ED170A584600F1010A00EE90AAF8EE87
:100F3000E08AD4ED180A48EE800AC4ED180A9FED45
:100F4000CE9A20EE080A20EE090A009908EB8101EA
:100F500001F65C0181ED000ABBF1000F1AD04FF0E1
:100F6000000C15E00099491EA1EB0C0108318A1014
:100F700001EB5272D210B1EBC20105D408EB810132
:100F800001F65C0181ED000A0CF1010C0FFA8CFCFA
:100F90008445E7DB082D02D2284600B203E0072093
:100FA00001E0401E00B20028FBD584ED190A494635
:100FB00049B2304600F048F968EE090AB7EE001A67
:100FC000C1EE200A20EE800AD4ED1A0A48EE800A0B
:100FD000C4ED1A0A0AEB0700A0640AEB0500E064FE
:100FE00002B0BDEC048BBDE8F18F000000007A4434
:100FF000000000000000C8426666A63F0100904065
:1010000049B2032944D1DFED9D0AB4EE600AF1EE46
:1010100010FA01DBB0EE600A9FED991ADFED990A34
:1010200040EE010A90ED011A9FED970AB4EE401AC6
:10103000F1EE10FA43DADFED951AB4EE611AF1EE33
:1010400010FA74DBB4EE401AF1EE10FA6FD59FED92
:10105000900A31EE000ADFED8F1A60EE211A9FED43
:101060008E0A9FED8E2A01EE002A22EE200A20EE43
:10107000210A9FEDB72ADFEDB72A41EE022A62EE80
:10108000A00AB7EE001A31EE611A00EE810A56E0AE
:10109000DFED830A60EE200A60EE800A9FEDAE1A53
:1010A00040EE410A9FEDAD0A70EE800A90ED011A04
:1010B0009FED750AB4EE401AF1EE10FA0ADB90EDDE
:1010C000010A9FED751ADFED751A40EE011A21EE47
:1010D000A00A34E0DFED6D1AB4EE611AF1EE10FAF9
:1010E00025DBB4EE401AF1EE10FA20D59FED680A28
:1010F00031EE000ADFED671A60EE211A9FED660AF5
:101100009FED662A01EE002A22EE200A20EE210A37
:101110009FED8F2ADFED8F2A41EE022A62EEA00AB0
:10112000B7EE001A31EE611A00EE810A07E090ED89
:10113000010A20EE800ADFED8A0A20EE200A007AFA
:10114000022803D1DFEDD10A20EE200A704700000B
:10115000CDCC4C3E0000A04010B52DED028BB0EE82
:10116000408A0C46DFED7F8A49B2FFF749FF64B23F
:10117000042C31D1DFED7C0AB4EE608AF1EE10FA76
:1011800016DBB1EE021AB4EE418AF1EE10FA0FD579
:10119000DFED760A78EE200AB1EE041A60EE810ADD
:1011A000FCEEE00A10EE900AC01D08EE900A3DE049
:1011B000B4EE608AF1EE10FA03D5072008EE900A2B
:1011C00034E0F1EE020AB4EE608AF1EE10FA2DDBA3
:1011D000122008EE900A29E0F7EE080AB4EE608AC1
:1011E000F1EE10FA11DBDFEDAA0AB4EE608AF1EE3F
:1011F00010FA0AD5FFEE080A78EE200AB1EE041ABA
:1012000060EE810AFCEEE08A10E0F7EE080AB4EE28
:10121000608AF1EE10FA09D4DFED9D0AB4EE608A1F
:10122000F1EE10FA02DB062008EE900ADFF8FC0C63
:1012300018EE901A00EB8100D0ED000A20EE200A93
:10124000BDEC028B10BD0000F0EE0C0A49B204297F
:1012500004D19FED901A40EE010A03E09FED8E1A33
:1012600040EE010A9FED8D0A20EE800AD0ED000AC3
:1012700020EE200A70470000000070429A99194041
:101280006ADEF13D8638163F00002A43000016430F
:10129000000016C3CDCC4C3D4260E53A6666263F61
:1012A0002575C23E0020DFF8541591ED140AF7EEC3
:1012B000040AB4EE600AF1EE10FA47DADFF8702C97
:1012C000D288042A42DAD1ED150A9FED751A60EE34
:1012D000810AB4EE600AF1EE10FA03D5022A01DBAE
:1012E000012012E0DFF84C1C91ED0B0ADFED6D0AD6
:1012F000B4EE600AF1EE10FA07DBDFED6B0AB4EE34
:10130000600AF1EE10FA00D5012001281ED1DFF8A5
:10131000241C91ED170AD1ED180A70EEC00A9FED5A
:10132000631AF4EE410AF1EE10FA07DBF7EE080A51
:10133000B4EE600AF1EE10FA00D50020DFEDC50A28
:10134000B4EE600AF1EE10FA00D5002070470000FC
:1013500052491D3BB81E053F7593E83F2497534003
:10136000C1C0C03B0000000066660640666606C05D
:10137000484505000021DFF88424538D032B1FDA34
:1013800092ED140ADFEDA50AB4EE600AF1EE10FA50
:1013900016DB92ED0D0AF2EE040AB4EE600AF1EEED
:1013A00010FA0DD592ED100ADFEDAB0AB4EE600A2B
:1013B000F1EE10FA04D50421DFF8743B1981012104
:1013C00092ED100AF6EE000A92ED111A30EE011AB3
:1013D00021EE201AF3EE0E1AB4EE611AF1EE10FAB5
:1013E0001CD492ED0D1AD2ED0E1A71EE211A61EE97
:1013F000A01AB2EE042AF4EE421AF1EE10FA0DD45D
:10140000F3EE041AB4EE610AF1EE10FA06D4B1EE6E
:10141000040AB4EE401AF1EE10FA04D50521DFF803
:10142000103B1981012192ED140A9FED8C1AB4EE44
:10143000410AF1EE10FA27DBDFF8F82A92ED0A0AEA
:1014400092ED0B1A80EE010A9FED851AB4EE410A67
:10145000F1EE10FA18DB00EE100AB8EE400A20EEAA
:10146000200AD2ED080AF4EE400AF1EE10FA0BD58C
:10147000D2ED090AF4EE400AF1EE10FA04D50E207E
:10148000DFF8AC1A08810121084670473333733FF7
:101490009A993940CDCC4C3ECDCCCC3D0AD7A33B1C
:1014A0003333333F010020420000C8420100C03FF7
:1014B000C8AC4542A1F292443464EC440146002099
:1014C000CE4AD36C13FA81F102291AD392ED140A91
:1014D000DFED8F0AB4EE600AF1EE10FA11DB92ED47
:1014E000110AD2ED100A80EE200ADFED8A0AB4EE6E
:1014F000600AF1EE10FA04DB0920DFF8343A1881B3
:10150000012002291CD39FED840AD2ED110A92ED2D
:10151000101AC0EE810AF4EE400AF1EE10FA0FDB69
:10152000D2ED0E0A92ED0D1AC0EE810AF4EE400AD9
:10153000F1EE10FA04DB0A20DFF8F43918810120FB
:10154000002913D0DFF8EC1991ED190ADFEDA50A97
:1015500020EE200AD1ED1A0AF4EE400AF1EE10FA5C
:1015600004D50B20DFF8C8190881012092ED140A78
:10157000DFED9D0AB4EE600AF1EE10FA08DA92EDA2
:10158000150ADFED9A0AB4EE600AF1EE10FA1EDBDE
:1015900092ED100ADFED960AB4EE600AF1EE10FA51
:1015A0000DD492ED0D0ADFED930AB4EE600AF1EE70
:1015B00010FA04D4DFF87819C988022907DB518DA5
:1015C000032904DB0C20DFF868190881012092ED63
:1015D0000F0ADFED870AB4EE600AF1EE10FA08D4C4
:1015E00092ED1B0AF1EE040AB4EE600AF1EE10FA75
:1015F00012D5116F526F511800EE101ABAEEEF0AA1
:10160000DFED7D0AB4EE600AF1EE10FA04DB0D2086
:10161000DFF81C190881012070470000010000401C
:1016200000005842002075498A6C12F1640F0FD2F5
:101630009FED730AD1ED180AF4EE400AF1EE10FAAC
:1016400006DAD1ED1A0AF4EE400AF1EE10FA00DBE8
:101650000120704785EB113F00002042010040400F
:101660003433333F46FFC742BDBA984110B40146F8
:101670000020DFF8C028654BD3F8144900EE104A6B
:10168000D1ED000AB4EE600AF1EE10FA08D1147838
:10169000641C1470E4B2FE2C04DB3224147001E0EC
:1016A0000446147003F6141393ED010AD1ED010AF8
:1016B000B4EE600AF1EE10FA08D15478641C54704C
:1016C000E4B2FE2C04DB3224547001E00446547072
:1016D00093ED020AD1ED020AB4EE600AF1EE10FABF
:1016E00008D19178491C9170C9B2FE2904DB3221DE
:1016F000917001E0014691701178322905DA517834
:10170000322902DA9178322900DB012010BC7047BF
:10171000010060400100A04001007041014600202E
:1017200091ED000AB5EE400AF1EE10FA01DCB1EEDF
:10173000400ADFF80028DFED340AB4EE600AF1EE6B
:1017400010FA08DBD3785B1CD370DBB2FE2B04DB12
:101750003223D37001E00346D37091ED010AB5EE58
:10176000400AF1EE10FA01DCB1EE400AB4EE600A74
:10177000F1EE10FA08DB13795B1C1371DBB2FE2B60
:1017800004DB3223137101E00346137191ED020A69
:10179000B5EE400AF1EE10FA01DCB1EE400AB4EE0B
:1017A000600AF1EE10FA08DB5179491C5171C9B297
:1017B000FE2904DB3221517101E001465171D178DB
:1017C000322905DA1179322902DA5179322900DB1E
:1017D00001207047DFF89C0CC0697047DFF8940C5B
:1017E000006970479A99993E01009040010080403D
:1017F0000000C8430000164301008C42E04F050082
:101800008096184BB0C0050035336B41405B050036
:101810002DE9F84F2DED068B86B0814688464FF0B6
:10182000000A9FEDD88ADFEDD78A9FEDD69ADFEDCB
:10183000D59ADFF8444CE088ADF81000A088ADF8E8
:1018400002002089ADF80000504601900546484648
:10185000FFF70CFF03904846FFF760FF0290DFF8A8
:10186000D06628467065B0653081B06EDFF80C7CBC
:10187000D7F8141900EE101AD9ED000A30EEC01A8C
:1018800001EE900AF8EEE11A21EE211AB5EE401AA7
:10189000F1EE10FA1BD596ED1D1A70EE411AF5EE19
:1018A000401AF1EE10FA01DC71EE401A9FEDB61A03
:1018B000F4EE411AF1EE10FA05DB216F491C2167A5
:1018C000F16D491CF16586ED1D0A4042B06607F6D0
:1018D000141090ED010AF16E99ED011A31EE401AE3
:1018E00001EE901AF8EEE11A21EE211AB5EE401A37
:1018F000F1EE10FA1BD596ED1E1A70EE411AF5EEB8
:10190000401AF1EE10FA01DC71EE401A9FED9E1ABA
:10191000F4EE411AF1EE10FA05DB226F521C226739
:10192000326E521C326686ED1E0A4942F16690ED17
:10193000020A306F99ED021A31EE401A01EE900A58
:10194000F8EEE11A21EE211AB5EE401AF1EE10FA86
:101950001BD596ED1F1A70EE411AF5EE401AF1EE06
:1019600010FA01DC71EE401A9FED871AF4EE411A6D
:10197000F1EE10FA05DB216F491C2167716E491CDD
:10198000716686ED1F0A404230673078052805D120
:1019900001203064284630707080B080F06C404484
:1019A000F064706B716C884201D101203064B06BBF
:1019B00000EB400107EB810B0BF6C000C0ED000A05
:1019C000D9F804104160D9F80810816041464846B2
:1019D00000F0B2FA2061DFF85C850398012802D09C
:1019E0000298012836D19FED670ADBF8C00800EEA7
:1019F000900A60EEA00ADBF8C40801EE100A21EE9E
:101A0000011ADBF8C80801EE900A61EEA11A98F8F5
:101A10000000322805DA98F80300322801DA30EEA7
:101A2000800A98F80100322805DA98F80400322874
:101A300001DA30EE010A98F80200322805DA98F847
:101A40000500322801DA30EE210A00F025FDB0EE63
:101A500040AA37E00BF50C60D0ED020A90ED011AB8
:101A6000DBF8C00800EE100A20EE000A01EE010AC1
:101A700000EEA00A00F010FDB0EE40AAD9ED010A78
:101A800099ED000A20EE000A00EEA00A00F004FD25
:101A9000F0EE408AD9ED020A99ED010A20EE000A23
:101AA00000EEA00A00F0F8FCB0EE409AD9ED020A70
:101AB00099ED000A20EE000A00EEA00A00F0ECFC0E
:101AC000F0EE409AF06B002824D128460CE007EB9A
:101AD000800181ED15AA07EB8002C2ED008A81ED3D
:101AE000079AC1ED0E9A401C0728F0DBF068B06140
:101AF0003069F06170693062B1EE0C0A68EE800AFC
:101B0000C6ED030A69EE000AC6ED040A29EE800A52
:101B100086ED050AB06B07EB800181ED15AA07E0A1
:101B200007EB8A0090ED150A38EE008A0AF1010AE7
:101B3000BAF1070FF4DB86ED098A96ED090A706B9E
:101B400007EB800080ED230AD6ED0B0A70EE800AC9
:101B5000C6ED0B0AF268B2613269F26172693262F3
:101B6000B26B07EB8202C2ED008A81ED079AC1EDEC
:101B70000E9A2A46DFED030A9FED021ADFED011AE5
:101B800013E000BF00000000CECC4C3E07EB820308
:101B900093ED002A70EE820A93ED072A31EE021AC5
:101BA00093ED0E2A71EE821A521C072AEEDBC6ED67
:101BB000030A86ED041AC6ED051AD1ED1C0A70EE73
:101BC000600A00F27442C2ED000A81ED1C0AD6EDF3
:101BD0000C0AD0F8742401EE102A70EE810AC6EDCA
:101BE0000C0AD9ED000AF5EE400AF1EE10FA01DC1C
:101BF000F1EE600A9FEDCB1AF4EE410AF1EE10FA15
:101C00001BDAD9ED010AF5EE400AF1EE10FA01DC1B
:101C1000F1EE600AF4EE410AF1EE10FA0DDAD9EDB8
:101C2000020AF5EE400AF1EE10FA01DCF1EE600A6C
:101C3000F4EE410AF1EE10FA08DB0122C8F81C208C
:101C4000D8F8102042F00102C8F81020B4EE41AAE2
:101C5000F1EE10FA04DAB5EE40AAF1EE10FA08D56A
:101C60000122C8F81C20D8F8102042F00202C8F85F
:101C70001020B5EE400AF1EE10FA08D50122C8F89E
:101C80001C20D8F8102042F00402C8F810209FED64
:101C9000A60AD1ED1C0AF4EE400AF1EE10FA08DBB8
:101CA0000121C8F81C10D8F8101041F00801C8F83C
:101CB0001010D0ED230AF4EE400AF1EE10FA08DB22
:101CC0000121C8F81C10D8F8101041F01001C8F814
:101CD0001010D0F8741400EE101AD8ED050AF4EEC6
:101CE000400AF1EE10FA10D1D8F81810491CC8F8C3
:101CF0001810FB290CDB0121C8F81C10D8F81010B3
:101D000041F02001C8F8101002E02946C8F8181068
:101D100088ED050AD8F81C10012901D12846FCE0FD
:101D200007F6141199EC030A81EC030AD8F8701035
:101D3000012906D101203064284630707080B080BF
:101D40007CE0316D491C31653278012A01D0032ACB
:101D500037D102292AD2628D042A27DAE16C0029C0
:101D60006CD196ED0A0ADFEDD70AB4EE600AF1EE07
:101D700010FA08D5D0F8741401EE101AB4EE601AF7
:101D8000F1EE10FA0FDAF9EE0C0AB4EE600AF1EE99
:101D900010FA53DBD0F8740400EE100AB4EE600AB7
:101DA000F1EE10FA4AD50120306447E0272908D324
:101DB0007288002A03D011FA82F14B2901D3012144
:101DC0003164D0F8740400EE900A96ED0A0A00F02F
:101DD0007BF9D8F87400401CC8F87400FB2805DBB8
:101DE0000120307030647080B08030653078012818
:101DF00024D17088002821D0B18800291ED0032268
:101E000011FA80F03D2801DB01203064608D042848
:101E100000DB0222F088824201D201203064284691
:101E200070663066F065FEF727FA0190206F6067F4
:101E300028462067B080F080C8F87400706BB16CE1
:101E4000401AFA304FF0FA084146B0FBF1F108FBB6
:101E500011007189884201D100F037FA706BB16CC2
:101E6000401AFA304146B0FBF1F108FB110064283A
:101E700001D100F06BFAE088BDF81010814204D166
:101E8000BDF80210A288914200D00125002812D08E
:101E9000706BB16C401AFA304146B0FBF1F108FBAF
:101EA0001101322902D10120208114E04B2912D1E5
:101EB000002020810FE0A08800280CD0706BB16C4E
:101EC000401AFA304146B0FBF1F108FB11007D28C1
:101ED00001D101202081BDF800002189884200D075
:101EE0000125706B07EB8001D1F87414B162401CBE
:101EF0007063FA2801D100207063B06B401CB0639E
:101F0000072801D10020B063F06B401CF0630198FA
:101F10002843401E8041C043C00F06B0BDEC068B75
:101F2000BDE8F28FC4F51C430C5789448C51050061
:101F3000604F05006050050010B4DFF8402590EDBB
:101F4000000AD2F8143900EE903A30EE600A02F638
:101F50001413D0ED010A93ED011A70EEC10A90ED51
:101F6000021AD3ED021A31EE611AB5EE400AF1EE13
:101F700010FA02DDF0EE401A01E0F1EE401AF5EE43
:101F8000400AF1EE10FA02DDB0EE602A01E0B1EE97
:101F9000602AB5EE401AF1EE10FA02DDF0EE412AA9
:101FA00001E0F1EE412A71EE821A71EEA21AB5EE4D
:101FB000400AF1EE10FA01DCB1EE400ADFF8B40499
:101FC00090ED082A32EE000A80ED080AF5EE400A8C
:101FD000F1EE10FA01DCF1EE600A90ED090A30EE44
:101FE000200A80ED090AB5EE401AF1EE10FA01DC84
:101FF000B1EE411A90ED0A0A30EE010A80ED0A0AAC
:1020000090ED0B0A30EE210A80ED0B0ADFF87034F8
:10201000DB6B002B12D1002306E002EB840404F6F4
:102020007C04C4ED001A5B1C9BB21C460F2CF4DB35
:10203000B2EE0E0A21EE800A80ED150A038902EB4A
:102040008302D2F87C4800EE104A31EEC00AD0ED8F
:10205000150A30EE200A80ED150A02F67C02C2ED68
:10206000001AF2EE0E0A80EE200ADFF80C2482ED50
:102070001B0AD0ED170AB4EE600AF1EE10FA01D592
:1020800080ED170AD0ED180AF4EE400AF1EE10FACE
:1020900001D580ED180ADFEDAB0AB4EE600AF1EE6F
:1020A00010FA03D5826D8918816501E000218165F0
:1020B000591C018189B20F2901D100210181806D54
:1020C00010BC70470100E0409FED9F1ADFF8A803A5
:1020D000408D042801DBB0EE001ADFF8A403B5EE52
:1020E000400AF1EE10FA07DBF5EE400AF1EE10FAC5
:1020F00002D5C188491CC1800178002905D0022978
:1021000060D02DD3032976D0B0E0F1EE0C1A31EE79
:10211000211AB4EE401AF1EE10FA0BDBB4EE601A9D
:10212000F1EE10FA06D5016D1029C0F08F80002164
:1021300001658BE0416BDFF8442302EB8101D1F8AC
:10214000741401EE901ADFF83C1391ED010AF4EEDD
:10215000401AF1EE10FA40F18980C1ED011A85E0D4
:10216000416BDFF8182302EB8101D1F8741401EE02
:10217000901ADFF8101391ED002AB4EE612AF1EE07
:1021800010FA01D5C1ED001AF7EE001AB4EE610A9B
:10219000F1EE10FA6ADBB7EE000AF4EE400AF1EE57
:1021A00010FA63D5016D418000210165B9EE0C0A7A
:1021B00030EE410AF4EE400AF1EE10FA10D402219A
:1021C000017053E0F9EE0C1A31EEC11AB4EE410A77
:1021D000F1EE10FA4ADBF4EE410AF1EE10FA45D5C1
:1021E00003210170A549426B01EB8201D1F87414FF
:1021F000A44A51603AE0416BA04A02EB8101D1F858
:10220000741401EE901A9F4991ED012AF4EE421ADE
:10221000F1EE10FA01D5C1ED011ADFED831AB4EE2B
:10222000610AF1EE10FA21D5F4EE610AF1EE10FA2E
:102230001CDB016D818000210165B1EE0C0A31EEDD
:10224000000AB4EE600AF1EE10FA0ED50121017019
:102250008C490A6842654A688265884A436B02EB8A
:102260008302D2F874240A6000E00170007870479D
:1022700000280CD0C168804AD160916490ED070AB3
:1022800082ED070A406A506282ED180A9066704734
:10229000002803D07849282200F058B97047002858
:1022A00006D0794942684A6002680A60007A08727A
:1022B000704780B5002801D1002002BD542201469C
:1022C000724800F043F9012002BD10B56A4C608DE0
:1022D000218D002904D0002802D00020208106E0B2
:1022E000084302D00120208101E00220208100204B
:1022F000E06420626061A0802085E0626065A06586
:1023000002464021624800F0E3F8E06F012801D165
:10231000FEF78EFC57484189002909D0628E8A4217
:1023200001D2218600E02286002141810846A06773
:10233000A06F012801D1608E20860020A06710BD0B
:1023400000000000EC51383E0000000010B54A4C7F
:10235000608D218D002904D0002802D0002020812A
:1023600006E0084302D00120208101E00220208104
:102370000020206260616085E080024608214548B7
:1023800000F0A6F80020E062E06F012801D1FEF71E
:102390004FFCA06F012801D1608E208610BD80B552
:1023A000012034490867FFF7D1FFFFF78EFFBDE832
:1023B000014003E000202F49086770472D48C0897D
:1023C0002D49098E814200D200E070472A49CA6C2B
:1023D0000B8E9A4203D208860020886770472549F1
:1023E000488170472448C16C002904D1818DC08D7B
:1023F00010FA81F070470020704701460020002944
:1024000002D0012901D0704702E01B48C06C704720
:102410001948018EC26C891A828D891AC08D081ADA
:1024200000D5002070470000FEFF7FBF38B504468E
:102430001348104D1049012C06D106224A860C2261
:10244000EA819622428105E007224A860F22EA812C
:1024500064224281A889A04209D0088E082803DAA4
:10246000488EFFF7B3FF02E0E889FFF7AFFFAC81CA
:1024700031BD000060500500E04F0500405B0500E5
:10248000604F050048C80500B0C005008C5105002C
:10249000BCC00500F863050081B08DED000A00980E
:1024A000401000F1FE500090DDED000AC0EE200A61
:1024B0009DED001A70EE810ACDED000AB5EE001A0E
:1024C000DDED001A80EE210A00EE810A01B07047AE
:1024D00062F30F2262F31F4200B500BF130096465D
:1024E0009446103928BFA0E80C50FAD85FEA417C26
:1024F00028BF0CC048BF40F8042BC90728BF20F8EC
:10250000022B48BF00F8012B00BD50F8041B61B13D
:1025100050F8042BD30744BFA9F101039A180023F4
:10252000091F42F8043BFAD1EFE7704762B38B070B
:1025300008D0521E11F8013B00F8013B00F0248046
:102540008B07F6D1830740F0208000BF103A07D3F5
:1025500030B4B1E83810103AA0E83810F9D230BCE5
:10256000530724BFB1E80810A0E8081044BF51F891
:10257000043B40F8043BD20724BF31F8022B20F87B
:10258000022B44BF0B7803707047083A07D3B1E8B9
:102590000810083A40F8043B40F804CBF7D2530740
:1025A000E4E78268521C8260426832B10268531CC0
:1025B000036011704168491E416070470022FFF7B7
:1025C0008BBF000062F30F2262F31F42401810F02D
:1025D000030308D0C91A1FD3DB0748BF00F8012D39
:1025E00028BF20F8022D130030B4144615461039C8
:1025F00028BF20E93C00FAD8490728BF20E90C0091
:1026000048BF40F8042D890028BF20F8022D48BF9C
:1026100000F8012D30BC7047C91818BF00F8012D13
:10262000CB0728BF00F8012D7047000010B50FF24E
:10263000740001F081FBDFF8844C0020A073208738
:10264000E06502464021DFF8980DFFF741FF0122C7
:102650003C21AA2001F02CFE00206074E0730246A9
:1026600004F18001012002F08FFB002805D00FF259
:10267000440001F061FB032010BD002204F18C0135
:10268000BC2002F081FB002805D00FF2340001F0DD
:1026900053FB032010BDBC2002F099FC60650020B4
:1026A00010BD000050443A537461727432303039B6
:1026B0003134000050443A45525241434300000037
:1026C00050443A45525256480000000010B5DFF819
:1026D000EC4B002204F18001012002F0B1FB002844
:1026E00005D00FF22C0001F027FB032010BD0022C3
:1026F00004F18C01BC2002F0A3FB002805D00FF2EE
:10270000200001F019FB032010BD002010BD0000C7
:1027100050443A4552524143434F46460000000060
:1027200050443A45525256484F4646002DE9F84F1C
:102730002DED028BA4B003F00FF9DFF8C42C0023B9
:1027400003F040F906460F46DFF8704BD4E910015C
:10275000A6EB00080EA81421FFF730FF0FF2781047
:1027600090ED008A03F03AFA451EAD41ED0F0EA937
:10277000012003F002FE207AA84200D025728320B7
:1027800002F01DFE0546B8F1140000D540420328B2
:1027900015DBA16F491CA167322291FBF2F23223B3
:1027A00003FB1211002901D00B2808DBCDE90067DB
:1027B000D4E9102341460FF2241001F0BDFA606FF6
:1027C00040446067E06E804500DC4046E066206F74
:1027D000404500DA4046206701950EA984B068465E
:1027E0001422FFF7B3FE0FBCB0EE480A01F0D1FB94
:1027F000A06D2818A065A06E401CA06641F2717102
:10280000884259DBD4E91201A6EB000B206D416A26
:10281000002901D0012500E0002590F828A0606D76
:10282000002802D14FF0FF3801E090F9288003F032
:10283000D5F9814613A84021FFF7C0FE0FF2B4027C
:10284000D2E90001CDE90C010CA803F0C9FA13A8E4
:1028500001F0EAFCE16F481CE06716980B9094F9D0
:102860000D000A9094F90C000990A06D089094F95D
:1028700009000790CDF818800595CDF810A0CDF887
:102880000C90CDF808B0BDF9340001909DF93200EC
:1028900000909DF931309DF930200FF2600001F079
:1028A0004BFAC4E912670020A066606742F210701C
:1028B000E06600202067A06794F9080000F0E0FAC5
:1028C000002801D000F0D7F8C4E91067002024B038
:1028D000BDEC028BBDE8F28F00007A4450443A53BD
:1028E000544552522825642920256C6C6420256C9F
:1028F0006C640A00000000000000000050443A2010
:102900005B25755D25643A25643A25643A25642083
:10291000747325642C6C636425642C72656628745A
:1029200025642C6525642C762564292025642025C2
:10293000642C25642C25642C25640A0010B5DFF86E
:102940007C4994F9000000283AD494F90B0094F9DA
:102950000110814228D1617B0818E07240B23D2805
:1029600001DB3C38E07294F90B100FF2700001F0BB
:10297000E3F90020A065DFF8C00C90F901000146E2
:1029800011F1010F01D1012010BD94F90120511A5C
:10299000012901DB101A00E0801A40B2012801DB96
:1029A000012010BD002010BDDFF8900C90F901202F
:1029B000914203D0D4E90023C0E90023002010BDD8
:1029C000A06DDFF80C1D884205DB0FF2180001F046
:1029D000B3F9012010BD002010BD000050443A4E54
:1029E0005425640050443A4E6F54696D65000000F0
:1029F00010B40020DFF8C41802E04B7B9A18CA72AA
:102A000091F90B20002811D44878801A40B201288F
:102A1000F3DA00280AD0030000D55B4291F90D409B
:102A20009C42EDDA101BC8720020E9E73C2A02DB69
:102A3000A2F13C00C87210BC704780B5DFF87C087A
:102A40000021C17301214172002181724FF0FF31D9
:102A500001700F21017314214173002181730187DB
:102A6000C1658174016641660A4624211430FFF76E
:102A70002FFD002002BD30B5A5B00AA85821FFF7F0
:102A80009DFD00A82821FFF799FD20A81421FFF73C
:102A900095FD0AA800F024FEDFF8384C9DF82900C7
:102AA00020709DF82900C02806D113A9C88DA4F86C
:102AB0005E00086B206694E0000633D49DF82A007F
:102AC0008DF8800020A89DF82B10417000218170A6
:102AD0009DF82C10C170BDF833100A0A02714171C3
:102AE0000DF133018A788271C978C1719DF8371070
:102AF00001729DF8381041729DF82D1081729DF879
:102B00002E10C1729DF82F1001739DF83010417383
:102B10000E2220A9601CFFF709FD0F20A4F85E001B
:102B200024665EE0DDF82A10080C8DF8000000A88D
:102B30000A0A42708170DDF82E100A0CC2700A0A6F
:102B400002714171DDF832100A0C82710A0AC271F9
:102B50000172DDF836100A0C42720A0A8272C172E2
:102B600013990A0C02730A0A4273817313A90A7932
:102B7000C2734A790274CA88130A8DF811308274BC
:102B8000097A8DF81310DDF83A100A0C8DF814202C
:102B90000A0A8DF815208175DDF83E100A0C8DF8B3
:102BA00017200A0A8DF818208DF81910DDF8421048
:102BB0000A0C82760A0A8DF81B208DF81C10DDF8AD
:102BC00046100A0C8DF81D200A0A82778DF81F1016
:102BD000202200A9601CFFF7A9FC2120A4F85E00B8
:102BE0002466B4F85E20D01CDFF8D016096D488248
:102BF000DFF8E85A0120287068700320A870216E61
:102C0000E81CFFF793FC2946832003F0BFFA25B0A8
:102C100030BD38B5DFF8A4364FF46164C1EB01155F
:102C2000AD0014FB005414194FF47A756C43DC6149
:102C30005B7C009313460A4601460FF20C0001F03C
:102C40007BF831BD0000000050443A425425643AFC
:102C500025643A25642C282564290000F8B52DED5B
:102C6000028B9EB0DFF87867314684B06846402218
:102C7000FFF76CFC0FBC00F0E3FC10EE100A03F051
:102C8000F3FB41EC100B9FED7C8BDFF83046256A9F
:102C900053EC102B51EC180B03F00EFC03F0DEFC90
:102CA00015FA80F020624FF6FF75A84200D3256226
:102CB000314684B068464022FFF748FC0FBC00F064
:102CC00073FC10EE100A03F0CFFB41EC100B676AA7
:102CD00053EC102B51EC180B03F0EEFB03F0BEFC91
:102CE00017FA80F06062A84200D3656200200D9060
:102CF00002200C90314684B068464022FFF726FC43
:102D00000FBC00F0DDFAE18A4018E08280B2FF28B3
:102D100001DBFF20E08200200D9003200C90314663
:102D200084B068464022FFF711FC0FBC00F0C8FADF
:102D3000A16A4018A062A84200D3A56200200D90AD
:102D400006200C90314684B068464022FFF7FEFB17
:102D50000FBC00F0B5FA218B4018208380B2FF2809
:102D600001DBFF20208300200D9007200C903146CE
:102D700084B068464022FFF7E9FB0FBC00F0A0FAE0
:102D8000618B4018608380B2FF2801DBFF206083E5
:102D900000200D9008200C90314684B068464022F7
:102DA000FFF7D4FB0FBC00F08BFAE16A4018E06239
:102DB000A84200D3E56200200D9009200C90314616
:102DC00084B068464022FFF7C1FB0FBC00F078FAE0
:102DD000216B40182063A84200D325630EA801F0A0
:102DE00023FA276E1C9803F03FFB0022DFF85C3DBE
:102DF00003F062FB03F032FC57FA80F02066616E4C
:102E0000491C6166B0FBF1F0207500200D90012097
:102E10000C90314684B068464022FFF797FB0FBC08
:102E200000F04EFA616B40186063A84200D36563FE
:102E3000207C00F030FB1EB0BDEC028BF1BDDFF852
:102E40007C04C18A002914D1816A002911D1018B27
:102E500000290ED1418B00290BD1C16A002908D16C
:102E6000016B002905D1406B401E8041C043C00F5B
:102E7000704701207047000000000000000059402A
:102E80002DE9F04F9FB0064600250EA801F0CCF9C1
:102E9000DFF82844E07B3146884204D0012E79D106
:102EA000284601F0D1FB28460D9001200C90DFF858
:102EB000301584B068464022FFF748FB0FBC00F095
:102EC000FFF907469DED1C0ADFF81405D0ED0E0A48
:102ED00030EE600A10EE100A03F0C6FA2A46DFF858
:102EE0006C3C03F0E9FA03F0B9FB81461FFA89F95B
:102EF000DFF8EC044088BDF83A100A1AD2B2099201
:102F0000DFF8DC24D268119B9A4208D1884206D1AE
:102F1000DFF8CC04C088BDF83E1088420ED000A86F
:102F200029460A460B460EC0119800901C98019045
:102F30001D98029000A9A42003F028F9002E3FD18B
:102F4000002F03D1099850EA090000D00125002084
:102F5000A0654FF0FF302070D4E90001DFF8DC26D7
:102F6000C2E90001DFF8FC2CC2E90001DFF8C82645
:102F7000C2E90001207BE072E07B002800F0AE8017
:102F80000020E073607C002800F0A8800120A0747D
:102F90000546A3E0002E11D1206D90F82810406A5C
:102FA000002801D0012200E02A46119B0FF2BC202C
:102FB00000F0C2FE012001F047FB74E7284652E111
:102FC0000FF2C022D2E90001CDE9050105A802F007
:102FD00007FF94F9012094F900104FF47A704FF430
:102FE00061684FF03C0B11FB08F312FB0B3394F9B3
:102FF00002C043FA8CF3B4F904C000FB03C3BDF96B
:1030000018C09DF816A08DF801A09DF901A0CDF87B
:1030100020A09DF815A08DF800A09DF900A0CDF886
:103020001CA09DF914E01EFB08F81AFB0B88DDF8C4
:1030300020A0D04400FB08C0F046414509D09DF9CE
:103040000080424505D094F902809DF901A0D04549
:1030500001D1984210D2CDF810C00898039007987B
:103060000290CDF804E0B4F90400009094F9023025
:103070000FF60C4000F060FE00F0AEF9002819D009
:10308000DDE90501C4E900012846A072D4E9000188
:10309000DFF8A825C2E900011198009094F90230E8
:1030A00094F9012094F900100FF6F03000F044FE7E
:1030B000FFF79EFCDDE90501C4E90001FFF73EFCD6
:1030C00000280BD0D4E90001DFF86C25C2E900012B
:1030D000607C002801D00120A0740125012E07D1B9
:1030E000E07B3146884203D0002000F041FAE673CD
:1030F000012E56D1002F54D0DFF8688B207C617CE4
:1031000008430AD101206074D4E90001C8E9020132
:10311000A27861782078FFF77CFD94F9010098F996
:103120000910401A411E222901D2012005E010F1A8
:10313000230F01DA012000E0002001282AD1FFF747
:103140007EFE002826D0207C401C2074C0B21528AA
:1031500009D10FF6643000F0EFFD0120A0741420B7
:103160002074012516E000202066606602462421B6
:1031700004F11400FFF7ACF9607C401C6074A27885
:1031800061782078FFF745FD0622214608F1080006
:10319000FFF7DCF9FFF762FD40220EA99048FFF728
:1031A000D5F9A07B012828D1208F002801D1012545
:1031B0001CE0E16D814215D2002F03D1099850EA3D
:1031C000090000D00125DFF89C8A98F9020094F9E3
:1031D000022090420AD0481CE065D4E90001C8E909
:1031E000000103E00020A0732087E065012E04D1D8
:1031F000607C002801D00120A0742846012801D15C
:103200000021A165216D496A00292BD10021A1650A
:10321000012826D10FF6AC20D0E90023CDE9042304
:1032200004A802F0DDFD022000F0A2F9119CDFF8F5
:10323000348AD8F81000201A0B2812D31B9803F0F8
:1032400013F9CDE9020100949DF912309DF9112086
:103250009DF910100FF6742000F06EFD1198C8F85B
:103260001000002528461FB0BDE8F08F50443A6C8E
:1032700063646F6E206325642065256420282564BF
:1032800029000000000000000000000080B50020C0
:10329000DFF8B819886500F002F8002002BD00B51B
:1032A00091B000A800F0C0FF402200A9DFF8A009FB
:1032B000FFF74CF9012011B000BD0000804D050062
:1032C0000FB410B590B000249DF98C0001280BD1EB
:1032D00001F060F81599884202D3441AE4B271E013
:1032E0008038441AE4B26DE000A800F09DFF9DF91B
:1032F0008800401E082865D8DFE800F02905111D68
:103300002935414D590004981699884201D3441A31
:1033100058E0DFF854291018401A441C52E0059870
:103320001799884201D3441A4CE0DFF83C29101861
:10333000401A441C46E006981899884201D3441A62
:1033400040E0DFF824291018401A441C3AE00398A2
:103350001599884201D3441A34E0DFF80C2910187B
:10336000401A441C2EE007981999884201D3441A48
:1033700028E0DFF8F4281018401A441C22E00898CE
:103380001A99884201D3441A1CE0DFF8DC2810188F
:10339000401A441C16E009981B99884201D3441A2C
:1033A00010E0DFF8C4281018401A441C0AE00A98FC
:1033B0001C99884201D3441A04E0DFF8AC281018A5
:1033C000401A441C204610B010BC5DF814FB0120CC
:1033D000DFF8781888727047DFF87008807A7047D5
:1033E000D0C2050000F029BFDFF86018792802DBA1
:1033F0007820088700E00887012088737047000064
:1034000040420F0010B5040001D1012402E0072C56
:1034100000DB062421460FF6D00000F08DFC641E70
:10342000052C2DD8DFE804F0030A11181F26DFF859
:103430001C08372101733C21417321E0DFF80C089F
:10344000192101731E2141731AE0DFF800080F21D2
:1034500001731421417313E0DFF8F0070A210173AF
:103460000F2141730CE0DFF8E407072101730C2101
:10347000417305E0DFF8D407052101730A21417388
:10348000DFF8C807017BC172BDE81040FFF7B0BA92
:10349000DFF8A007704700EB80018800821CDFF88E
:1034A0009407DFF8A817CB691B0E92B21354521C75
:1034B000CB691B0C92B21354521CCB691B0A92B2FB
:1034C0001354521CCB6992B21354521C0B6A1B0A40
:1034D00092B21354521C0B6A92B21354521C4B6A90
:1034E0001B0A92B21354521C4B6A92B21354521CD0
:1034F000CB8A92B21354521C8B6A1B0A92B2135499
:10350000521C8B6A92B21354521C0B8B92B21354FE
:10351000521C4B8B92B21354521CCB6A1B0A92B2B0
:103520001354521CCB6A92B21354521C0B6B1B0ADD
:1035300092B21354521C0B6B92B21354521C0B7D5B
:1035400092B21354521C4B6B1B0A92B21354521C6E
:103550004B6B92B21354501C4887704710B5DFF87C
:10356000EC46618F0FF2887000F0E6FB608F10BDB3
:1035700010B5DFF8D846012807DB627C002A04D0AA
:1035800001460FF27C7000F0D7FB0022242104F1E9
:103590001400FEF79DFF00202074012060870020AA
:1035A00060742066606610BD0FB400B591B000A8CD
:1035B00000F03AFE9DED0B0ADDED1D0AB4EE600A47
:1035C000F1EE10FA02DB30EE600A05E09FED421AE0
:1035D00071EE600A30EE800A10EE100A02F044FF2D
:1035E000DFF85426DFF8543603F064F803F0D6F819
:1035F00002F03AFF0022DFF8483602F05DFF03F0E8
:103600002DF800EE100AB8EEC00A10EE100A02F013
:103610002BFFDFF82426DFF82C3602F04DFFDFF811
:103620002826DFF8483603F045F803F0B7F800EE37
:10363000100A11B05DF814FB40C8050038C8050039
:103640000FB400B591B000A800F0EEFD9DED0D0A9D
:10365000DDED1F0AB4EE600AF1EE10FA02DB30EE87
:10366000600A05E09FED1C1A71EE600A30EE800AD8
:1036700010EE100A02F0F8FEDFF8BC25DFF8BC35CA
:1036800003F018F803F08AF802F0EEFE0022DFF8EB
:10369000B03502F011FF02F0E1FF00EE100AB8EEC3
:1036A000C00A10EE100A02F0DFFEDFF88C25DFF80A
:1036B000943502F001FFDFF89025DFF8B03502F015
:1036C000F9FF03F06BF800EE100A11B05DF814FB7F
:1036D00040771B00CCBE0500002474492CAC0500CB
:1036E00070B52DED068B9EB004460EA800F09CFD33
:1036F000DFF85855A87B012804D1288F002801D174
:103700000020A873A87C012817D1687C002814D059
:10371000C0216170DFF81C15C0220A70487004F1E6
:103720002406FFF71BFFF085FFF7B2FE3063012090
:10373000FFF71EFF0020A874A4E19FEDD48B9FED3E
:10374000D59BDFF80C5500200D9001200C902946E8
:1037500084B068464022FEF7F9FE0FBCFFF7B0FDCB
:103760000A2880F0BE80002060700D9002200C902E
:10377000294684B068464022FEF7E8FE0FBCFFF7FA
:103780009FFD61780843607000200D9003200C902D
:10379000294684B068464022FEF7D8FE0FBCFFF7EA
:1037A0008FFDA07000200D9004200C90294684B05D
:1037B00068464022FEF7CAFE0FBCFFF781FDE070AD
:1037C00000200D9005200C90294684B068464022C8
:1037D000FEF7BCFE0FBCFFF773FD2071294684B0D5
:1037E00068464022FEF7B2FE0FBCFFF729FF10EE3D
:1037F000100A02F039FE41EC100B53EC102B51EC87
:10380000190B02F059FE02F029FFA4F80B0004F195
:103810000B061C9802F028FE53EC182B02F04CFE0D
:1038200002F01CFFB070BDF83A00F070294684B079
:1038300068464022FEF78AFE0FBCFFF7B5FE10EE89
:10384000100A02F011FE41EC1A0B53EC1A2B51EC4A
:10385000190B02F031FE02F001FFE0731D9802F037
:1038600003FE53EC182B02F027FE02F0F7FE207443
:1038700000200D9006200C90294684B06846402216
:10388000FEF764FE0FBCFFF71BFD607100200D907A
:1038900007200C90294684B068464022FEF756FE69
:1038A0000FBCFFF70DFDA07100200D9008200C90BB
:1038B000294684B068464022FEF748FE0FBCFFF759
:1038C000FFFCE07100200D9009200C90294684B087
:1038D00068464022FEF73AFE0FBCFFF7F1FC20726B
:1038E000CEE08020607000200D9002200C902946D0
:1038F00084B068464022FEF729FE0FBCFFF7E0FCCB
:10390000C4F8020000200D9003200C90294684B0DA
:1039100068464022FEF71AFE0FBCFFF7D1FCC4F840
:10392000060000200D9004200C90294684B06846C3
:103930004022FEF70BFE0FBCFFF7C2FCC4F80A00E2
:1039400000200D9005200C90294684B06846402246
:10395000FEF7FCFD0FBCFFF7B3FCC4F80E002946D0
:1039600084B068464022FEF7F1FD0FBCFFF768FE09
:1039700010EE100A02F078FD41EC100B53EC102B06
:1039800051EC190B02F098FD02F07EFE606204F12A
:1039900024061C9802F068FD53EC182B02F08CFDF5
:1039A00002F05CFE3071BDF83A007071294684B0B7
:1039B00068464022FEF7CAFD0FBCFFF7F5FD10EE8A
:1039C000100A02F051FD41EC1A0BA24AA24B02F080
:1039D0002DFF06D8A14AA24B02F040FF01D29FED75
:1039E000A4AB53EC1A2B51EC180B02F065FD02F05E
:1039F00035FEF0801D9802F037FD53EC182B02F0D5
:103A00005BFD02F02BFE307200200D9006200C9022
:103A1000294684B068464022FEF798FD0FBCFFF7A8
:103A20004FFCC4F8120000200D9007200C9029468E
:103A300084B068464022FEF789FD0FBCFFF740FCCA
:103A4000C4F8160000200D9008200C90294684B080
:103A500068464022FEF77AFD0FBCFFF731FCC4F840
:103A60001A0000200D9009200C90294684B0684669
:103A70004022FEF76BFD0FBCFFF722FCC4F81E00CE
:103A8000FFF70DFC1EB0BDEC068B70BD0000000002
:103A900000002440000000000000594010B596B01E
:103AA00004460020002C05D10FF26C2000F044F9F0
:103AB000002048E004F15001497801293CD101A8D7
:103AC0005421FEF77BFD0020ADF8000013E000EE6E
:103AD000102AB8EE400ADFED680A20EE200A01A89D
:103AE000BDF8001000EB810080ED000ABDF8000079
:103AF000401CADF80000BDF80000142816DABDF82F
:103B0000000054F82020A2F52F70B0F5167FDED902
:103B1000BDF800100FF2102000F00EF901A8BDF85A
:103B200000104FF07E5240F82120DFE70120159071
:103B300001A800F08BFD05E0022903D194F85000A4
:103B40000120C046C0B216B010BD000000002440E5
:103B500080B5112802D11078FFF746FC002002BD85
:103B600010B596B01446102826D0142811D0152868
:103B700014D0162817D017281AD0292806D03D2887
:103B800043D1002C41D0FFF781FB3EE0FFF71FFC43
:103B90003BE021780020FFF725FC36E0217801206A
:103BA000FFF720FC31E021780220FFF71BFC2CE01E
:103BB0002078FFF727FC28E000A85421FEF7FEFC40
:103BC000207814A94870012817D100200FE004EBD9
:103BD00080014A788B781B0403EB0262CB7802EBFE
:103BE00003220979511800AA42F82010401C142819
:103BF000EDDB00A8FFF752FF07E0022805D160784F
:103C00008DF8500000A8FFF749FF002016B010BD46
:103C10000E4908659831C1618321017014218160CA
:103C20000121017301820021418214494161002078
:103C300070470000F4AD05007B14AE47E17A743F95
:103C400000005940E17A843F2D431CEB804D050074
:103C5000D0C20500B81E85EB51B89E3F9A9999993C
:103C60009999B93F64C7050080969800E2361A3FDB
:103C70009A9999999999B93F6F12833A2CAC05009A
:103C800050443A2025643A25643A25642E25643E42
:103C900025643A25643A25642E25640050443A543C
:103CA000696D654E6F746920256420256420256444
:103CB000202825642900000050443A425446554CBF
:103CC0004C000000000000000000000050443A25B5
:103CD000643A25643A2564206578302028256420DC
:103CE000252E32662900000050443A5554256400C0
:103CF00050443A4241544C454E47544820256400B4
:103D000050443A436C65617262617463682825644B
:103D10002C636E742564290050443A534620505455
:103D20005233206E756C6C0050443A5346455252E3
:103D30005B25642C25645D000EB470B5C1B00446EB
:103D400000A84FF48071FEF739FC45AB22464FF4D2
:103D5000807100A802F09AFD00A802F0B5FD441C95
:103D6000002000A9611801F8010C644D2878401C5E
:103D70002870802080F3118800BF00BF6878401C45
:103D800068705F4E317808462218FA2A0DDA5D4ACB
:103D90008018002902D00A2100F8011C224600A93F
:103DA000FEF7C4FB3078201830706878401E6870C9
:103DB000C0B2002802D1002080F3118802F0C0FEBA
:103DC00041B070BC5DF810FB4D480078002801D070
:103DD000801C00E00020C0B2704738B5484C227803
:103DE000002A10D000280ED0032101704270454DEA
:103DF0002946801CFEF79AFB0022FA212846FEF78E
:103E000067FB0020207031BDF0B595B004A80FF21B
:103E1000FC010CC90CC0922002F046FF040004D142
:103E20000FF2F000FFF788FF65E000229221FEF715
:103E3000C9FB002517E000208DF802009DF8020064
:103E4000002803D0C868019008690290306A0028F1
:103E500001D0C0680390102200A904EB0510801C5B
:103E6000FEF764FB6D1C072D16DA04A82F5C38469C
:103E700001F0ADF80600F5D000A81021FEF79EFB7A
:103E80008DF8007006F12000017A8DF8011041686C
:103E90000029D0D00120CFE70CA82021FEF78EFB0F
:103EA000194800680C9002F0B0FF0D9001F092FEEE
:103EB0008DF838000DF13A0001F092FF10A801F0E2
:103EC00066FF20220CA904F17200FEF72FFB06A862
:103ED0000FF24C011422FEF739FB9220ADF81B00C3
:103EE0003120207007206070214606A802F0ACFF48
:103EF000204602F0F1FE15B0F0BD00007853050039
:103F0000A8C8050074B90500E8960200010204057E
:103F100008108300524349206661696C000000006C
:103F2000050000000000000000000000000000008C
:103F30000000000038B5DFF8A80A00880146102903
:103F400008DA002806D0DFF89C4A04EB81004168BB
:103F5000491C4160DFF88C4A2068401C2060B0F5A5
:103F6000617F15DB01250AE004EB85004268002A29
:103F700004D029460FF68C20FFF7DEFE6D1C102DB5
:103F8000F2DB00224021201DFEF7A2FA0020206073
:103F900031BD0FB42DE9F0472DED028B88B0DFF86D
:103FA000484AB4F876A004F108050A27B5F91E00BE
:103FB00010FB07F0B5F92010A0EB010804F5BA7664
:103FC000304603F099FE94F8740117FB00F7BFB276
:103FD0002A2F18D10FFA88F8B8F1000F13D5B0685E
:103FE00000280DD10120FEF708FA8046FEF7D7F928
:103FF0000120B060424639460FF61420FFF79CFEC0
:104000000120706023E0B068012807D1FEF7D2F9E3
:104010000020B0600FF61020FFF78EFE7068282F8A
:104020000DDB002806D1D4F8802039460FF6042095
:10403000FFF782FE01207060FEF7C0F907E001285B
:1040400003D10FF61020FFF777FE00207060129862
:1040500004909DED138A8DED058ADDED148ACDED7A
:10406000068ADDF85C8004A890EC030A404600F064
:104070008AFCDFF8787995ED030ADDED120AB4EEDB
:10408000600AF1EE10FA30D195ED040AB4EE480A58
:10409000F1EE10FA29D195ED050AB4EE680AF1EEB9
:1040A00010FA22D1F86900F10109C7F81C90B9F1A2
:1040B000150F02D30020F8611FE0B9F1020F1CD3E5
:1040C000686902F0D1F9CDE90201286902F0CCF962
:1040D000CDE90001E86802F0C7F902460B464946FF
:1040E0000FF67C10FFF728FE07E00498E8600598BB
:1040F0002861069868610020F861414604A8FDF730
:1041000087FB804604F12000FEF7C2F8A869012869
:1041100014D1F868401CF860FCF79DF804F1200009
:10412000FEF7B6F8282204F1200104F14800FEF75A
:104130000DFA0FF64010FFF7FFFD18E0FDF74AFB00
:10414000012812D13869401C3861FDF747FB7861BE
:10415000FCF781F804F12000FEF78AF87A693969E2
:104160000FF61810FFF7E8FD01E000F021F9B8693B
:10417000401CB861B0F5617F08DBFB687A6939697A
:104180000FF60810FFF7D8FD0020B861FFF7D2FE48
:10419000BAF1000F40D0B4F8760000283CD1287A5C
:1041A000DFF84C1894ED020ABDEEC00A10EE102A9A
:1041B0004FF47A735A4301FB002095ED010ABDEEDE
:1041C000C00A10EE101A081841007A68BA603B68FD
:1041D0007B60D4F88000386078690290386901907B
:1041E000386800900FF6B800FFF7A6FD04F18005CF
:1041F000B068039070680290286A02F035F9CDE942
:104200000001A86A02F030F902460B46D4F880108B
:104210000FF6AC00FFF790FD404608B0BDEC028BF6
:10422000BDE8F0075DF814FB002805D0DFF8B817EB
:10423000096F4022FEF78AB9704738B50C46050071
:104240000BD1DFF8A40700EE104AB8EE400A80ED6B
:10425000030A0830FEF723F815E0012D0BD1DFF833
:10426000880700EE104AB8EE400A80ED020A0830D6
:10427000FEF715F807E0022D05D1DFF86C0704748E
:104280000830FEF70CF80D2010FB04F229460FF65B
:104290005000FFF751FD42F27470044640F2EF7097
:1042A000224601460FF64800BDE83840FFF744BDFE
:1042B0002DE9F8432DED028B84B0074688469146E0
:1042C0000FF63C00FFF738FD42F27470044640F2EE
:1042D000EF70224601460FF61800FFF72DFDDFF8BC
:1042E000084700224FF4C0712046FEF7F1F804F1B0
:1042F000080504F1B406AE6600EE107AB8EE408A06
:1043000085ED018A00EE108AB8EE400A84ED020ABB
:1043100085F80890F2EE0A8A48460D2111FB00F05C
:10432000029020EE280A10EE100A02F09DF8CDE966
:10433000000128EE280A10EE100A02F095F8024655
:104340000B460FF2C870FFF7F7FCFBF7D9FE2846C3
:10435000FDF7A5FF0020606704F174010220C8800A
:1043600028223046FEF7F2F80120607104F5BA7099
:1043700003F0C2FC0020C4F87C01C4F878010246B6
:104380003C2104F5C07004B0BDEC028BBDE8F843DD
:10439000FEF79EB810B590B0FEF724F8044600A8CA
:1043A000FFF742FF0398001910B010BD0000000095
:1043B0002DE9F041DFF83046251DA86A616D88427D
:1043C00004D16A8CB4F84E309A4279D0B0EB01082F
:1043D00002D5DFF82006804404F1540695ED100A5A
:1043E000D6ED060A30EE600AB5EE400AF1EE10FA9C
:1043F00003D5DFED940A30EE200AD5ED0E0A96EDD6
:10440000041A70EEC10AF5EE400AF1EE10FA03D577
:104410009FED8C1A70EE810A6878012802D002287C
:1044200027D02DE004F1F40739469FEDCA1A404623
:1044300000F052F8207940442071C0B206281FDBFA
:1044400004F5807004F174019FEDC21AD0ED0A0AE0
:1044500090ED080AD4F8000100F03EF82079401CE5
:104460002071002240213846FEF732F802206870A1
:1044700006E004F174019FEDB71A404600F02CF8F5
:10448000688C002809D10022402104F1F400FEF7D5
:104490001FF80020207101206870282204F12001FB
:1044A00004F14800FEF752F804F17400F06104F1E1
:1044B000B407402204F174013846FEF747F8F7616B
:1044C000A88CB4F8BA10884204D004F15406F084E1
:1044D000A4F8BA00BDE8F081F8B52DED028BF0EE3E
:1044E000408AB0EE608AB0EE410A0C46DFF8F8541C
:1044F000EE8CAF8CA68000F038F894ED0B0A30EE0D
:10450000280A84ED0B0A00F075F884ED0B0A66802A
:104510002780A86B206394ED0D0A30EE080A84ED25
:104520000D0A00F047F884ED0D0A95ED100ADFED55
:104530008A0A20EE200A84ED0E0ADFED880AB4EE26
:10454000600AF1EE10FA02DBDFF8AC04A063686BDE
:10455000E0636088002801D10020E063286BA06040
:10456000288DE080BDEC028BF1BD38B505460C46C8
:10457000E0682818E06000F05CF8E06060880328DC
:1045800002D0042807D00DE020692818206100F02F
:1045900050F8206131BD60692818606100F049F869
:1045A000606131BD20692818206100F042F8206167
:1045B00031BD000080B52DED028BB0EE408A9FED3D
:1045C000B10AB4EE408AF1EE10FA0DDB9FEDAE0AAF
:1045D00038EE008A18EE100A01F046FF02460B463C
:1045E0000FF23450FFF7A8FBB0EE480ABDEC028B87
:1045F00001BD000080B52DED028BB0EE408A9FED2D
:10460000A10AB4EE408AF1EE10FA0DDB18EE100AA2
:1046100001F02AFF02460B460FF20850FFF78CFB11
:104620009FED990A38EE008AB0EE480ABDEC028B85
:1046300001BDDFF8C013884202D3DFF8C0130818A9
:104640007047000000247449FDF7F0BEFDF731BE4D
:104650002DE9F8432DED048B8AB00446B0EE408A74
:10466000F0EE608AB0EE419ADF4D05F5C27696ED28
:104670000B0AF0EE480AB4EE600AF1EE10FA05D12A
:10468000D5F884012018C5F8840102E00020C5F89F
:104690008401F0EE689A96ED0C0AB4EE690AF1EE28
:1046A00010FA03D170682018706001E0002070607B
:1046B000B0EE490AD6ED0D0AF4EE400AF1EE10FA1A
:1046C00003D1B0682018B06001E00020B060D6F8D7
:1046D0000480D5F8849140F6B837B94504DAB84576
:1046E00002DAB068B8422EDB10EE100A01F0BCFE10
:1046F000CDE90801B068069019EE900A01F0B4FE09
:10470000CDE90401CDF80880B0EE480A10EE100A99
:1047100001F0AAFECDE900014A4621460FF2104001
:10472000FFF70AFBD5F88401B84202DB0020C5F888
:1047300084017068B84201DB00207060B068B84244
:1047400001DB0020B0600AB0BDEC048BBDE8F18352
:1047500000000000000000008FC2753D0100C8414C
:104760002DE9F8432DED048B8AB00446B0EE408A63
:10477000F0EE608AB0EE419AB5EE400AF1EE10FA22
:1047800001DCB1EE400A984DDFED940AB4EE600A08
:10479000F1EE10FA05DBD5F890012018C5F890016C
:1047A00002E00020C5F89001F0EE689AF5EE409A1C
:1047B000F1EE10FA02DDB0EE690A01E0B1EE690A2D
:1047C00005F5C876B4EE600AF1EE10FA03DB706806
:1047D0002018706001E000207060B0EE490AB5EE6C
:1047E000400AF1EE10FA01DCB1EE401AB4EE601AA4
:1047F000F1EE10FA03DBB0682018B06001E0002091
:10480000B060D6F80480D5F8909140F6B837B94535
:1048100004DAB84502DAB068B8422EDB10EE100AAE
:1048200001F022FECDE90801B068069019EE900A69
:1048300001F01AFECDE90401CDF80880B0EE480A77
:1048400010EE100A01F010FECDE900014A462146A3
:104850000FF20030FFF770FAD5F89001B84202DB92
:104860000020C5F890017068B84201DB002070603C
:10487000B068B84201DB0020B0600AB0BDEC048B28
:10488000BDE8F18301247449002474C970B52DED8D
:10489000088B8AB00646B0EE408AF0EE608AB0EE31
:1048A000419AF0EE499AB0EE68AA20EE000A0AEEAC
:1048B0000A0A09EEA90AFDF7EFFD4B4CD4F89C015A
:1048C00004F5CE75002805D10021E9604C49A960A6
:1048D00000212961D5ED030AF4EE400AF1EE10FA49
:1048E00001D585ED030AD5ED020AB4EE600AF1EEBA
:1048F00010FA01D585ED020AD5ED040A70EE80AA02
:10490000C5ED04AA6968491C0BEE101A85ED01BAC1
:104910003018C4F89C0147F2315188422FDB19EE60
:10492000900A01F0A1FDCDE908011AEE100A01F08C
:104930009BFDCDE90601B0EE480A10EE100A01F029
:1049400093FDCDE90401E86801F08EFDCDE9020197
:10495000A86801F089FDCDE90001B8EECB0A8AEE26
:10496000800A10EE100A01F07FFD02460B460FF29E
:104970000820FFF7E1F900206860C4F89C010AB044
:10498000BDEC088B70BD70B52DED048B0446B0EE08
:10499000408AF0EE608AB0EE419A134DB5F8766029
:1049A000FFF756FEB0EE491AF0EE680AB0EE480A7C
:1049B0002046FFF7D5FEB0EE491AF0EE680AB0EED9
:1049C000480A2046FFF762FF05F5D87080EC038A9D
:1049D000A5F88061BDEC048B70BD000035336B41E0
:1049E000684F050090C10500B8AF050000C605007E
:1049F00040420F00819698000000C841806967FF1F
:104A000000007A4450443A46256428256429000071
:104A100050443A42504F4E2056482825642920538E
:104A2000746570282564290050443A42504F464628
:104A30000000000050443A53746570436E74557022
:104A40002056482825642920535445502825642998
:104A50000000000050443A455849545648000000B0
:104A600050443A4E41435B25645D2025662025660F
:104A70002025660050443A4F4652000050443A52B6
:104A8000432825642C2564290000000050443A5234
:104A9000432825642C2564292C4F462825642900A9
:104AA00050443A53532825642C25643E25643E2502
:104AB00064292C52432825642C2564290A0000000F
:104AC00050443A532825642C252E32662C252E324C
:104AD00066292C562825642C2564290A000000002C
:104AE00050443A505554282564202564290000007C
:104AF00050443A5052497625642C4D762564000086
:104B000050443A31345345503230000050443A2535
:104B1000662025662025640050443A446973744F2A
:104B20006625660050443A43616C4F462566000096
:104B300050443A45532825643A25642C252E326684
:104B40002F25642C252E32662F25642C252E3266C7
:104B50002900000050443A45462825643A25642C33
:104B6000252E32662F25642C252E32662F25642CA7
:104B7000252E32662900000050443A4E43252E323D
:104B8000662C252E32662C252E32662F78252E3265
:104B9000662C79252E32662C7A252E32660A000084
:104BA0002DE9F04100242546DFF898791EE0052024
:104BB00000F03EFD0020F16909688847002804D014
:104BC0002046441CC0B20228F1DBE4B2032C0BDB0C
:104BD0000020317847F82100307857F82000C8F8D5
:104BE0000400304602F078F86D1C0024252D18DAF8
:104BF0002C2002F059F8064622462C21FDF768FCCD
:104C0000DFF84489304658F835108847307847F83F
:104C1000206008EBC508307857F82000C8F8040079
:104C2000C8E72046BDE8F081002200E0521C92B2A5
:104C30008A4204D2135CFF2BF8D001207047002079
:104C4000704702B51346372119705870022200A927
:104C5000981CFDF76BFC01BD02B5104601210170E7
:104C6000022200A9401CFDF761FC01BD008A022858
:104C700001DB012070470020704770B588B0064600
:104C800002A80FF62C111422FDF760FCDFF8B4081F
:104C900050F82600458A281D02F006F804462246F0
:104CA00001213046FFF7CDFF211D304601F065FBA5
:104CB000281DADF80B002846A0F1080189B2201D7F
:104CC000FFF7B2FF00280DD001F06BF8CDE900012D
:104CD000082200A928190838FDF728FC214602A857
:104CE00002F0B2F8204601F0F7FF08B070BD10B531
:104CF0000C46C17801290ED100216160FFF7B6FF93
:104D0000002805D0A068002802D001F0A3F800E038
:104D10000020A06010BD8068002804D001F09AF83F
:104D2000A060606010BD606801F094F86060A060F1
:104D300010BD30B400216FF00042104616E0DFF8DD
:104D4000084804EBC3035B68002B0ED01C6A002CE0
:104D50000BD0DD78002D08D1E4681B78052B01D13C
:104D6000042C02D0A04200DD2046491C49B20B466B
:104D7000252BE4DB082801D0102800D10420904224
:104D800000D1002030BC70472DE9F04184B00446CA
:104D900015462646DFF8AC0750F8267008788DF8DF
:104DA00000004868019088680290002F01D103201C
:104DB00043E000A93846FFF79AFF00A907F1200059
:104DC00003F036F907F11C0898F80C0001280BD104
:104DD000204601F005FB07F1100003F0A3F90020C5
:104DE000F969496888470DE09DF80000002809D15D
:104DF00007F1100003F096F93879012802D1204616
:104E0000FFF73BFF2A4600213D20FB691B699847BD
:104E1000F878002802D1022002F001F8D8F8080042
:104E2000002801D0012300E0002398F80C2031462F
:104E30000FF22470FEF780FF002004B0BDE8F0817F
:104E4000FEB506461446DFF8FC0650F826500878F2
:104E50008DF800004868019088680290002D19D0F4
:104E60009DF8000000280AD105F11C07B868002849
:104E700010D0C0680190B8680069029003E000A9F2
:104E80002846FFF734FF00A905F1200003F0F0F8F1
:104E9000002801D00320FEBDEB6905F11C07387B1B
:104EA000002803D10020D968884704E02246002169
:104EB0003E201B699847022001F0B1FFB868002826
:104EC00001D0012300E000233A7B31460FF29460C9
:104ED000FEF732FF0020FEBD30B587B00546DFF893
:104EE000640650F8254008788DF80C004868049056
:104EF0008868059010788DF80000506801909068DF
:104F00000290002C03D008781178884201D0032049
:104F100030E003A92046FFF7EAFE00A92046FFF78C
:104F2000E6FE04980199884205D1059802998842C5
:104F300001D100201EE000A904F1200003F098F840
:104F4000002801D0032015E003A904F1200003F09C
:104F50006FF8002211463F20E3691B699847022041
:104F600001F05DFF049B019A29460FF20460FEF7F1
:104F7000E3FE002007B030BD10B50C4611461A46BE
:104F8000DFF8C03553F82030002B01D1012010BDCF
:104F90002046DB691B699847002010BD10B50C4600
:104FA00011461A46DFF89C3553F82030002B01D10A
:104FB000012010BD192C04D1012100F0A7F9002017
:104FC00010BD2046DB695B699847002010BD014693
:104FD000CE2901DA002801D100207047DFF86405EE
:104FE00050F82100704710B582B000218DF80010F4
:104FF000082804D010281CD0202830D013BD00AAC7
:1050000001214020DFF83C355B68DB695B6998472C
:105010009DF80000800703D50021012003F02FF93F
:105020009DF80000400732D50021022003F027F947
:1050300013BD00AA01214020DFF808355B68DB6959
:105040005B6998479DF80000000703D50021032005
:1050500003F015F90021042003F011F913BDDFF866
:10506000E404046A00F09DFEE2699268904700281B
:105070000DD1606A002806D00069002803D1002104
:10508000082000F043F90021084603F0F8F813BDAA
:1050900010B50446206AA268002A07D1002810D063
:1050A0004269521A012A05DB4068F7E74069401A55
:1050B000012806DA00F075FEE2699268BDE810404A
:1050C000104710BD2DE9F84304460D4604F11000C9
:1050D00003F0A0F8064604F1100003F0A2F807461A
:1050E0002078372802DA4FF0040801E04FF0030877
:1050F000002F43D040F2012008EB0601814203DB80
:105100002046BDE8F243C5E0B5F8031016FA81F277
:10511000DFF8349408EB020181420DDB0FF25C41B1
:105120000FF26C40FEF708FE09F59471284601F075
:105130008BFE0020A5F80300B5F80300484400F5F5
:1051400094722078372803DA3946FFF77AFD02E0B7
:105150003146FFF781FD3A4604F11001B5F803002E
:1051600018FA80F0484400F5947003F00BF8B5F895
:10517000030008EB06010818A5F80300BDE8F18359
:1051800038B504461546606A00280FD08069401A79
:1051900001280BDA00F01EFD012802D1207B002837
:1051A00004D029462046BDE834408BE731BDF0B538
:1051B00085B000A80FF20C411422FDF7C7F901F0E9
:1051C00024FE04460025DFF8806328E006EBC500D6
:1051D0004768002F14D097F82800002810D0F878DE
:1051E00000280DD121463846FFF752FF00AA21467C
:1051F0003846FFF7C5FF214607F1200002F055FFB2
:10520000042D0BD1BDF80300002807D006F59471DA
:1052100000A801F019FE0020ADF803006D1C252D3B
:10522000D4DBBDF80300002803D0C84900A801F072
:105230000BFE002005B0F0BD70B5C24951F82050FA
:10524000002D26D0C24C2078401C2070802080F396
:10525000118800BF00BF6078401C60702E6A09E0B2
:1052600006F108012846FFF742FDF06870613069D9
:10527000B0617668002EF3D16078401E6070C0B2D5
:10528000002802D1002080F31188BDE8704001F0B1
:1052900057BC70BD2DE9F04385B0044600A80FF25D
:1052A00038311422FDF752F925784FF4FE70618AE7
:1052B00090FBF1F6B6B204F1100002F0B2FF07461F
:1052C000DFF8909219E0B8464A4641462846FFF773
:1052D000B8FC424604F1100109F1040002F052FF4B
:1052E000608A00FB08F0001DADF80300494600A8E5
:1052F00001F0AAFDA7EB0807BFB2002F03D0B74209
:10530000E1DBB046E0E705B0BDE8F08330B587B03B
:1053100004460D468B4850F82400FFF7BBFF002DD4
:1053200013D001A80FF2C4211422FDF70FF900A831
:105330000FF2CC210A6802608DF802400320ADF81C
:10534000070000A901A801F07FFD07B030BD30B50E
:1053500083B000A80FF250210CC90CC000240FE04C
:10536000784800A9615C50F82150002D07D02846EC
:10537000FFF77CFC002802D02846FFF78BFF641C57
:10538000052CEDDB37BD6F4951F82000002804D013
:10539000406A002801D00120704700207047694909
:1053A00051F82000002802D14FF0FF30704790F8EC
:1053B0002810481E8041C043C00F40B27047614969
:1053C00051F82000002804D0006A002801D0C068ED
:1053D0007047002070472DE9F0410446012510E098
:1053E000584850F8250000280AD0D4E90067012069
:1053F00000212A4602F0B0FF30433943C4E90001DE
:105400006D1C372DECDB04F1080681271EE04D48AA
:1054100050F82700002818D0A7F18002501102EBA5
:1054200090604FEAA0185FFA88F806EBC800D0E950
:10543000004501200021A2EB881202F08DFF2043DD
:10544000294306EBC802C2E900017F1CCE2FDEDB38
:10545000BDE8F0812DE9F04186B007460C4600A872
:105460000FF2A0111422FDF771F84FF4FE7001F055
:105470001BFC050019D121E03E462E2010FB06F84A
:105480001FFA88F808F10200ADF8030041202870E7
:105490006E7042462146A81CFDF748F8294600A830
:1054A00001F0D2FC4444BF1BFFB2002F03D00C2FED
:1054B000E2DB0B26E1E7284601F00EFC06B0BDE872
:1054C000F08138B5044601250CE01E4850F825301F
:1054D000002B06D0224600214820DB695B699847F3
:1054E0002E346D1C372DF0DB31BD70B5002401204A
:1054F000144A00E0401CC0B20146372906DA52F8CF
:1055000021100029F6D0641CE4B2F3E720462E21D6
:1055100011FB00F5ADB2284601F0C6FB06000FD026
:1055200000222946FDF74EF83046FFF7CAFF314604
:105530002046FFF78FFF3046BDE8704001F0CCBB3E
:1055400070BD0000489E050020420500484305004C
:105550007853050084A6050023612025642C25646A
:105560002C25640023722025642C25642C256400DE
:1055700023632025642C25643E25640061727261DA
:105580006E67655F646174615F7061636B65740011
:1055900025733A2074785F646174612069732066B2
:1055A000756C6C2825642900010E061208000000A5
:1055B00005000000000000000000000000000000E6
:1055C00000000000050000000000000000000000D6
:1055D00000000000000000000500000000000000C6
:1055E00000000000000000000000000005000000B6
:1055F00000000000000000000000000000000000AB
:10560000050100000500000000000000000000008F
:10561000000000000000000010B5DFF81043002279
:1056200008212046FCF754FF204610BDBF487047B4
:1056300038B5044602F0D5FE4FF47A7262438418FE
:1056400051EBE27500BF00BF00BF00BF00BF02F01A
:10565000C8FEA942F6D301D8A042F3D331BD38B574
:10566000044600F09EFBB24AC2E90801002C24D097
:10567000B0480078002820D0AF4C2078401C207023
:10568000AE4D2878401C2870102001F0C8FB802007
:1056900080F3118800BF00BF2078401E207028785A
:1056A000012804D16868002801D003F009F828789F
:1056B000401E2870002080F311880D20BDE8324084
:1056C00003F030B938B5044600F06BFB984AC2E9E4
:1056D0000601002C24D097480078002820D0964C52
:1056E0002078401C2070954D2878401C2870082098
:1056F00001F095FB802080F3118800BF00BF207867
:10570000401E20702878012804D16868002801D044
:1057100002F0D6FF2878401E2870002080F3118800
:105720000C20BDE8324003F0FDB838B5044600F067
:1057300038FB7F4AC2E90001002C24D17D48007863
:10574000002820D07C4C2078401C20707B4D28788D
:10575000401C2870202001F062FB802080F311881B
:1057600000BF00BF2078401E20702878012804D197
:105770006868002801D002F0A3FF2878401E287036
:10578000002080F311882220BDE8324003F0CAB81F
:1057900080B5002812D0032818D169480090002352
:1057A0001A4603210C2003F077F866480090002386
:1057B0001A4603210D2003F06FF801BD62480090E6
:1057C00000231A460221222003F066F801BD80B5AD
:1057D000FFF722FF03F062F9BDE80140BEE080B5AB
:1057E000084600F003FA594803F02BFA002805D0C8
:1057F0000FF27C10BDE80240FEF79EBA01BD002307
:10580000534A4021514803F079BA03F042BAF8B53F
:105810000C4615461E46052748480178491C01706C
:10582000002003F075FB002806D133462A462146A6
:10583000002003F070FB074601F082F93846C0B241
:10584000F2BDF8B50C4615461E4605273B480178C3
:10585000491C0170002003F05BFB002806D1334691
:105860002A462146002003F058FB074601F068F95C
:105870003846C0B2F2BD02280BD0052809D0062850
:1058800007D0082805D00E2803D01D2801D02228D3
:1058900001D102207047002070472DE9F8430C46E3
:1058A00015461E46052740B2FFF7E5FF804615F86E
:1058B000019B22480178491C01702649404603F0AB
:1058C000F6FB002808D10095731EDBB24A4661083A
:1058D000404603F002FC074601F032F93846C0B2F8
:1058E000BDE8F2832DE9F04182B00C4615461E4614
:1058F000052740B2FFF7BFFF804610480178491CDA
:1059000001701449404603F0D2FB002807D10096ED
:10591000089B2A466108404603F0CAFB074601F08F
:105920000FF93846C0B2BDE8F681000030C8050066
:1059300018C50500AFC80500B1C8050078530500BB
:10594000C55E00005F5E00002B5F000050C20500D6
:10595000DF5F0000801A060002F029BD80B5FFF766
:1059600065FE01210170C1704171817101BD0000AE
:105970004D534720426F782046756C6C0000000044
:1059800013F0004C03D55B42524263F100039CEAE2
:10599000210C00F0178010B5644603D34942404201
:1059A00061F1000100F00EF8640004D34942404266
:1059B00061F10001244203D55B42524263F10003CE
:1059C00010BD00001B4213D1094236D12AB18446D2
:1059D000B0FBF2F002FB10C2704703F0E7BBFCD350
:1059E0000022002370470B000200002100207047B6
:1059F000904271EB030CF6D370B5B1FA81F4B3FAAF
:105A000083F52C1BA340C4F1200532FA05F633437D
:105A1000A2405FF00046E64002E05B085FEA320227
:105A2000841A71EB030524BF204629467641F4D33E
:105A300002000B003000002170BD012ACFD970B5E3
:105A4000140C20D0B1FA81F4B2FA82F5C4F120042A
:105A50006419B4F12006D6D3B2405FF00044F4409C
:105A6000002502E052085FEA3303C61A71EB020E0A
:105A700024BF3046714664416D41F3D302000B00F0
:105A80002000290070BD0C46B1FBF2F102FB11456C
:105A90002D0445EA1045B5FBF2F402FB145580B223
:105AA00040EA0545B5FBF2F002FB105240EA044023
:105AB00070BD000000B585B000A80FF294611422FB
:105AC000FCF744FD00A803F0BCF8002803D00FF257
:105AD0004860FEF731F905B000BD80B50020DFF861
